{
  "contractName": "AquariumGarden",
  "abi": [
    {
      "constant": true,
      "inputs": [
        {
          "name": "",
          "type": "uint256"
        }
      ],
      "name": "seabyAllowedBreedToAddress",
      "outputs": [
        {
          "name": "",
          "type": "address"
        }
      ],
      "payable": false,
      "stateMutability": "view",
      "type": "function"
    },
    {
      "constant": true,
      "inputs": [],
      "name": "owner",
      "outputs": [
        {
          "name": "",
          "type": "address"
        }
      ],
      "payable": false,
      "stateMutability": "view",
      "type": "function"
    },
    {
      "constant": true,
      "inputs": [
        {
          "name": "",
          "type": "uint256"
        }
      ],
      "name": "seabies",
      "outputs": [
        {
          "name": "name",
          "type": "string"
        },
        {
          "name": "generation",
          "type": "uint16"
        },
        {
          "name": "birthTime",
          "type": "uint64"
        },
        {
          "name": "siringPartnerID",
          "type": "uint256"
        },
        {
          "name": "siringCD",
          "type": "uint256"
        },
        {
          "name": "forSale",
          "type": "bool"
        }
      ],
      "payable": false,
      "stateMutability": "view",
      "type": "function"
    },
    {
      "constant": true,
      "inputs": [
        {
          "name": "",
          "type": "uint256"
        }
      ],
      "name": "SeabyToOwner",
      "outputs": [
        {
          "name": "",
          "type": "address"
        }
      ],
      "payable": false,
      "stateMutability": "view",
      "type": "function"
    },
    {
      "constant": false,
      "inputs": [
        {
          "name": "newOwner",
          "type": "address"
        }
      ],
      "name": "transferOwnership",
      "outputs": [],
      "payable": false,
      "stateMutability": "nonpayable",
      "type": "function"
    },
    {
      "constant": true,
      "inputs": [
        {
          "name": "",
          "type": "uint256"
        }
      ],
      "name": "seabyApprovals",
      "outputs": [
        {
          "name": "",
          "type": "address"
        }
      ],
      "payable": false,
      "stateMutability": "view",
      "type": "function"
    },
    {
      "anonymous": false,
      "inputs": [
        {
          "indexed": true,
          "name": "seabyId",
          "type": "uint256"
        },
        {
          "indexed": true,
          "name": "name",
          "type": "string"
        }
      ],
      "name": "SeabyBirth",
      "type": "event"
    },
    {
      "anonymous": false,
      "inputs": [
        {
          "indexed": true,
          "name": "from",
          "type": "address"
        },
        {
          "indexed": true,
          "name": "to",
          "type": "address"
        },
        {
          "indexed": true,
          "name": "seabyId",
          "type": "uint256"
        }
      ],
      "name": "TransferFinish",
      "type": "event"
    },
    {
      "anonymous": false,
      "inputs": [
        {
          "indexed": true,
          "name": "previousOwner",
          "type": "address"
        },
        {
          "indexed": true,
          "name": "newOwner",
          "type": "address"
        }
      ],
      "name": "OwnershipTransferred",
      "type": "event"
    },
    {
      "constant": true,
      "inputs": [
        {
          "name": "_seabyId",
          "type": "uint256"
        }
      ],
      "name": "getFeaturesById",
      "outputs": [
        {
          "name": "",
          "type": "uint16[]"
        }
      ],
      "payable": false,
      "stateMutability": "view",
      "type": "function"
    },
    {
      "constant": false,
      "inputs": [
        {
          "name": "_name",
          "type": "string"
        }
      ],
      "name": "createRandomSeaby",
      "outputs": [],
      "payable": false,
      "stateMutability": "nonpayable",
      "type": "function"
    }
  ],
  "bytecode": "0x60806040526004600060146101000a81548160ff021916908360ff160217905550336000806101000a81548173ffffffffffffffffffffffffffffffffffffffff021916908373ffffffffffffffffffffffffffffffffffffffff160217905550610fbd8061006f6000396000f3fe60806040526004361061008e576000357c0100000000000000000000000000000000000000000000000000000000900463ffffffff1680634e260e9914610093578063628c4561146101235780638da5cb5b1461019e578063a2d1aeb6146101f5578063aaf34036146102ec578063af9336e914610367578063f2fde38b1461042f578063f76073a814610480575b600080fd5b34801561009f57600080fd5b506100cc600480360360208110156100b657600080fd5b81019080803590602001909291905050506104fb565b6040518080602001828103825283818151815260200191508051906020019060200280838360005b8381101561010f5780820151818401526020810190506100f4565b505050509050019250505060405180910390f35b34801561012f57600080fd5b5061015c6004803603602081101561014657600080fd5b8101908080359060200190929190505050610659565b604051808273ffffffffffffffffffffffffffffffffffffffff1673ffffffffffffffffffffffffffffffffffffffff16815260200191505060405180910390f35b3480156101aa57600080fd5b506101b361068c565b604051808273ffffffffffffffffffffffffffffffffffffffff1673ffffffffffffffffffffffffffffffffffffffff16815260200191505060405180910390f35b34801561020157600080fd5b5061022e6004803603602081101561021857600080fd5b81019080803590602001909291905050506106b1565b60405180806020018761ffff1661ffff1681526020018667ffffffffffffffff1667ffffffffffffffff16815260200185815260200184815260200183151515158152602001828103825288818151815260200191508051906020019080838360005b838110156102ac578082015181840152602081019050610291565b50505050905090810190601f1680156102d95780820380516001836020036101000a031916815260200191505b5097505050505050505060405180910390f35b3480156102f857600080fd5b506103256004803603602081101561030f57600080fd5b81019080803590602001909291905050506107c3565b604051808273ffffffffffffffffffffffffffffffffffffffff1673ffffffffffffffffffffffffffffffffffffffff16815260200191505060405180910390f35b34801561037357600080fd5b5061042d6004803603602081101561038a57600080fd5b81019080803590602001906401000000008111156103a757600080fd5b8201836020820111156103b957600080fd5b803590602001918460018302840111640100000000831117156103db57600080fd5b91908080601f016020809104026020016040519081016040528093929190818152602001838380828437600081840152601f19601f8201169050808301925050505050505091929192905050506107f6565b005b34801561043b57600080fd5b5061047e6004803603602081101561045257600080fd5b81019080803573ffffffffffffffffffffffffffffffffffffffff1690602001909291905050506108af565b005b34801561048c57600080fd5b506104b9600480360360208110156104a357600080fd5b8101908080359060200190929190505050610a04565b604051808273ffffffffffffffffffffffffffffffffffffffff1673ffffffffffffffffffffffffffffffffffffffff16815260200191505060405180910390f35b60606002600083815260200190815260200160002060009054906101000a900473ffffffffffffffffffffffffffffffffffffffff1673ffffffffffffffffffffffffffffffffffffffff163373ffffffffffffffffffffffffffffffffffffffff1614151561056a57600080fd5b6060600060149054906101000a900460ff1660ff166040519080825280602002602001820160405280156105ad5781602001602082028038833980820191505090505b50905060008090505b600060149054906101000a900460ff1660ff168160ff16101561064f576001848154811015156105e257fe5b906000526020600020906006020160050160008260ff1660ff16815260200190815260200160002060009054906101000a900461ffff16828260ff1681518110151561062a57fe5b9060200190602002019061ffff16908161ffff168152505080806001019150506105b6565b5080915050919050565b60056020528060005260406000206000915054906101000a900473ffffffffffffffffffffffffffffffffffffffff1681565b6000809054906101000a900473ffffffffffffffffffffffffffffffffffffffff1681565b6001818154811015156106c057fe5b9060005260206000209060060201600091509050806000018054600181600116156101000203166002900480601f01602080910402602001604051908101604052809291908181526020018280546001816001161561010002031660029004801561076c5780601f106107415761010080835404028352916020019161076c565b820191906000526020600020905b81548152906001019060200180831161074f57829003601f168201915b5050505050908060010160009054906101000a900461ffff16908060010160029054906101000a900467ffffffffffffffff16908060020154908060030154908060040160009054906101000a900460ff16905086565b60026020528060005260406000206000915054906101000a900473ffffffffffffffffffffffffffffffffffffffff1681565b60003390506060600060149054906101000a900460ff1660ff1660405190808252806020026020018201604052801561083e5781602001602082028038833980820191505090505b50905060008090505b600060149054906101000a900460ff1660ff1681101561089c57610869610a37565b828281518110151561087757fe5b9060200190602002019061ffff16908161ffff16815250508080600101915050610847565b506108aa8360008484610b2c565b505050565b6000809054906101000a900473ffffffffffffffffffffffffffffffffffffffff1673ffffffffffffffffffffffffffffffffffffffff163373ffffffffffffffffffffffffffffffffffffffff1614151561090a57600080fd5b600073ffffffffffffffffffffffffffffffffffffffff168173ffffffffffffffffffffffffffffffffffffffff161415151561094657600080fd5b8073ffffffffffffffffffffffffffffffffffffffff166000809054906101000a900473ffffffffffffffffffffffffffffffffffffffff1673ffffffffffffffffffffffffffffffffffffffff167f8be0079c531659141344cd1fd0a4f28419497f9722a3daafe3b4186f6b6457e060405160405180910390a3806000806101000a81548173ffffffffffffffffffffffffffffffffffffffff021916908373ffffffffffffffffffffffffffffffffffffffff16021790555050565b60046020528060005260406000206000915054906101000a900473ffffffffffffffffffffffffffffffffffffffff1681565b6000806003905060006064423384604051602001808481526020018373ffffffffffffffffffffffffffffffffffffffff1673ffffffffffffffffffffffffffffffffffffffff166c010000000000000000000000000281526014018260ff1660ff167f010000000000000000000000000000000000000000000000000000000000000002815260010193505050506040516020818303038152906040528051906020012060019004811515610ae957fe5b069050602181111515610b0157600192505050610b29565b602181118015610b12575060438111155b15610b2257600292505050610b29565b6003925050505b90565b6000620151809050610b3c610ea5565b60c0604051908101604052808781526020018661ffff1681526020014267ffffffffffffffff16815260200160008152602001838152602001600115158152509050600060018083908060018154018082558091505090600182039060005260206000209060060201600090919290919091506000820151816000019080519060200190610bcb929190610eec565b5060208201518160010160006101000a81548161ffff021916908361ffff16021790555060408201518160010160026101000a81548167ffffffffffffffff021916908367ffffffffffffffff160217905550606082015181600201556080820151816003015560a08201518160040160006101000a81548160ff0219169083151502179055505050039050610c618185610c76565b610c6d60008683610d0c565b50505050505050565b6000600183815481101515610c8757fe5b9060005260206000209060060201905060008090505b82518160ff161015610d0657828160ff16815181101515610cba57fe5b906020019060200201518260050160008360ff1660ff16815260200190815260200160002060006101000a81548161ffff021916908361ffff1602179055508080600101915050610c9d565b50505050565b600360008373ffffffffffffffffffffffffffffffffffffffff1673ffffffffffffffffffffffffffffffffffffffff16815260200190815260200160002060008154809291906001019190505550816002600083815260200190815260200160002060006101000a81548173ffffffffffffffffffffffffffffffffffffffff021916908373ffffffffffffffffffffffffffffffffffffffff160217905550600073ffffffffffffffffffffffffffffffffffffffff168373ffffffffffffffffffffffffffffffffffffffff16141515610ea057600360008473ffffffffffffffffffffffffffffffffffffffff1673ffffffffffffffffffffffffffffffffffffffff16815260200190815260200160002060008154809291906001900391905055506005600082815260200190815260200160002060006101000a81549073ffffffffffffffffffffffffffffffffffffffff02191690556004600082815260200190815260200160002060006101000a81549073ffffffffffffffffffffffffffffffffffffffff02191690555b505050565b60c06040519081016040528060608152602001600061ffff168152602001600067ffffffffffffffff16815260200160008152602001600081526020016000151581525090565b828054600181600116156101000203166002900490600052602060002090601f016020900481019282601f10610f2d57805160ff1916838001178555610f5b565b82800160010185558215610f5b579182015b82811115610f5a578251825591602001919060010190610f3f565b5b509050610f689190610f6c565b5090565b610f8e91905b80821115610f8a576000816000905550600101610f72565b5090565b9056fea165627a7a72305820bd1fa84132696828104cb530c0391c8a3f9763abb902bbeec1960ef0a39b53070029",
  "source": "pragma solidity ^0.5.0;\r\n\r\nimport \"./Ownable.sol\";\r\ncontract AquariumGarden is Ownable {\r\n\r\n    //  The Birth event is called whenever a new creature is created.\r\n    event SeabyBirth(uint indexed seabyId, string indexed name);\r\n    //  The TransferFinish is called when a transaction is over.\r\n    event TransferFinish(address indexed from, address indexed to, uint256 indexed seabyId);\r\n\r\n    //  The data structure of Seaby\r\n    struct Seaby {\r\n      string name;\r\n      uint16 generation;//\r\n      uint64 birthTime;\r\n      // The coolddown for the next breeding\r\n      uint siringPartnerID;\r\n      uint siringCD;\r\n      bool forSale;\r\n      mapping (uint8 => uint16) features;//0-eyes. 1-mouth. 2-color 3-body\r\n    }\r\n    uint8 _numberOfFeatures = 4;\r\n    Seaby[] public seabies;\r\n    // A mapping from Seaby IDs to the address of owns them. Gen0 Seabies are created with a non-zero owner.\r\n    mapping (uint => address) public SeabyToOwner;\r\n    // A mapping from owner address to count of tokens that address owns.\r\n    mapping (address => uint) ownerSeabyCount;\r\n\r\n    mapping (uint => address) public seabyApprovals;\r\n\r\n    mapping (uint256 => address) public seabyAllowedBreedToAddress;\r\n    \r\n    function _getNumberOfFeatures() internal view returns(uint8) {\r\n        return _numberOfFeatures;    \r\n    }\r\n    function _updateNumberOfFeatures(uint8 _newNumber) internal {\r\n        _numberOfFeatures = _newNumber;\r\n    }\r\n    \r\n    //  An internal method that creates a new Seaby and stores it. Will generate both a Birth event\r\n    //  and a Transfer event.\r\n    function _createSeaby(string memory _name, uint16 _generation, address _owner, uint16[] memory _features) internal {\r\n        uint _siringCD = 1 days;\r\n        \r\n        Seaby memory _seaby = Seaby({\r\n            name: _name,\r\n            generation: _generation,\r\n            birthTime: uint64(now),\r\n            siringPartnerID: 0,\r\n            siringCD:  _siringCD,\r\n            forSale: true\r\n        });\r\n\r\n        uint NewCBId = seabies.push(_seaby)-1;\r\n        _setFeatures(NewCBId,_features);\r\n        //emit SeabyBirth(NewCBId, _name);\r\n        _transfer(0x0000000000000000000000000000000000000000, _owner, NewCBId);\r\n    }\r\n    function _setFeatures(uint _seabyId, uint16[] memory _features) internal{\r\n        Seaby storage _seaby = seabies[_seabyId];\r\n        for (uint8 i = 0; i < _features.length; i++){\r\n            _seaby.features[i] = _features[i];\r\n        }\r\n    }\r\n    function getFeaturesById(uint _seabyId) public view returns (uint16[] memory) {\r\n        require(msg.sender == SeabyToOwner[_seabyId]);\r\n        uint16[] memory _features = new uint16[](_numberOfFeatures);\r\n        for (uint8 i = 0; i < _numberOfFeatures; i++) {\r\n            _features[i] = seabies[_seabyId].features[i];\r\n        }\r\n        return _features;\r\n    }\r\n    // A return function that will generate a random style by a feature index and return style of feature\r\n    function _generateRandomFeatures() internal view returns (uint16) {\r\n        // uint rand = uint(keccak256(_str));\r\n        uint8 randNonce = 3;//should be a seed of random number\r\n        uint random = uint(keccak256(abi.encodePacked(now, msg.sender, randNonce))) % 100;//0-100 random number\r\n        if (random <= 33){\r\n            return 1;\r\n        }\r\n        else if(random > 33 && random <= 67) {\r\n            return 2;\r\n        }\r\n        else{\r\n            return 3;\r\n        }\r\n    }\r\n    // A return function that will generate a new Seaby by calling _createSeaby function and return an array of features\r\n    function createRandomSeaby(string memory _name) public {\r\n        //require(ownerSeabyCount[msg.sender] == 0);\r\n        address _owner = msg.sender;\r\n        // int size = 4;\r\n        uint16[] memory _randFeatures = new uint16[](_numberOfFeatures); \r\n        for(uint i = 0; i < _numberOfFeatures; i++){\r\n            _randFeatures[i] = _generateRandomFeatures();\r\n        }\r\n        _createSeaby(_name, 0, _owner, _randFeatures);\r\n    }\r\n    // A internal function that can transfer a Seaby from one to other and generate a TransferFinish event.\r\n    function _transfer(address _from, address _to, uint256 _seabyId) internal {\r\n        ownerSeabyCount[_to]++;\r\n        SeabyToOwner[_seabyId] = _to;\r\n        if(_from != address(0)){\r\n            ownerSeabyCount[_from]--;\r\n            delete seabyAllowedBreedToAddress[_seabyId];\r\n            delete seabyApprovals[_seabyId];\r\n        }\r\n        //emit TransferFinish(_from,_to,_seabyId);\r\n    }\r\n}\r\n",
  "sourcePath": "C:\\Users\\chong\\Documents\\works\\KU_2019_Spring\\EECS_582\\Seathereum_final\\client\\src\\truffle\\contracts\\AquariumGarden.sol",
  "compiler": {
    "name": "solc",
    "version": "0.5.0+commit.1d4f565a.Emscripten.clang"
  },
  "schemaVersion": "3.0.2",
  "updatedAt": "2019-04-20T01:27:26.428Z",
  "devdoc": {
    "methods": {
      "transferOwnership(address)": {
        "details": "Allows the current owner to transfer control of the contract to a newOwner.\r",
        "params": {
          "newOwner": "The address to transfer ownership to.\r"
        }
      }
    }
  },
  "userdoc": {
    "methods": {}
  }
}