{
  "contractName": "Auction",
  "abi": [
    {
      "constant": false,
      "inputs": [
        {
          "name": "_to",
          "type": "address"
        },
        {
          "name": "_tokenId",
          "type": "uint256"
        }
      ],
      "name": "approve",
      "outputs": [],
      "payable": false,
      "stateMutability": "nonpayable",
      "type": "function",
      "signature": "0x095ea7b3"
    },
    {
      "constant": true,
      "inputs": [
        {
          "name": "_seabyId",
          "type": "uint256"
        }
      ],
      "name": "getSeabyById",
      "outputs": [
        {
          "name": "name",
          "type": "string"
        },
        {
          "name": "generation",
          "type": "uint16"
        },
        {
          "name": "birthTime",
          "type": "uint64"
        },
        {
          "name": "siringPartnerID",
          "type": "uint256"
        },
        {
          "name": "siringCD",
          "type": "uint256"
        },
        {
          "name": "forSale",
          "type": "bool"
        }
      ],
      "payable": false,
      "stateMutability": "view",
      "type": "function",
      "signature": "0x0e03ebda"
    },
    {
      "constant": true,
      "inputs": [],
      "name": "totalSeaby",
      "outputs": [
        {
          "name": "",
          "type": "uint256"
        }
      ],
      "payable": false,
      "stateMutability": "view",
      "type": "function",
      "signature": "0x42edeccc"
    },
    {
      "constant": true,
      "inputs": [
        {
          "name": "_seabyId",
          "type": "uint256"
        }
      ],
      "name": "getFeaturesById",
      "outputs": [
        {
          "name": "",
          "type": "uint16[]"
        }
      ],
      "payable": false,
      "stateMutability": "view",
      "type": "function",
      "signature": "0x4e260e99"
    },
    {
      "constant": true,
      "inputs": [
        {
          "name": "_owner",
          "type": "address"
        }
      ],
      "name": "getSeabiesByOwner",
      "outputs": [
        {
          "name": "",
          "type": "uint256[]"
        }
      ],
      "payable": false,
      "stateMutability": "view",
      "type": "function",
      "signature": "0x5e690182"
    },
    {
      "constant": true,
      "inputs": [
        {
          "name": "",
          "type": "uint256"
        }
      ],
      "name": "seabyAllowedBreedToAddress",
      "outputs": [
        {
          "name": "",
          "type": "address"
        }
      ],
      "payable": false,
      "stateMutability": "view",
      "type": "function",
      "signature": "0x628c4561"
    },
    {
      "constant": true,
      "inputs": [
        {
          "name": "_tokenId",
          "type": "uint256"
        }
      ],
      "name": "ownerOf",
      "outputs": [
        {
          "name": "_owner",
          "type": "address"
        }
      ],
      "payable": false,
      "stateMutability": "view",
      "type": "function",
      "signature": "0x6352211e"
    },
    {
      "constant": true,
      "inputs": [
        {
          "name": "_owner",
          "type": "address"
        }
      ],
      "name": "balanceOf",
      "outputs": [
        {
          "name": "_balance",
          "type": "uint256"
        }
      ],
      "payable": false,
      "stateMutability": "view",
      "type": "function",
      "signature": "0x70a08231"
    },
    {
      "constant": true,
      "inputs": [
        {
          "name": "_tokenId",
          "type": "uint256"
        }
      ],
      "name": "isForSale",
      "outputs": [
        {
          "name": "",
          "type": "bool"
        }
      ],
      "payable": false,
      "stateMutability": "view",
      "type": "function",
      "signature": "0x8546d002"
    },
    {
      "constant": true,
      "inputs": [],
      "name": "owner",
      "outputs": [
        {
          "name": "",
          "type": "address"
        }
      ],
      "payable": false,
      "stateMutability": "view",
      "type": "function",
      "signature": "0x8da5cb5b"
    },
    {
      "constant": true,
      "inputs": [
        {
          "name": "",
          "type": "uint256"
        }
      ],
      "name": "seabies",
      "outputs": [
        {
          "name": "name",
          "type": "string"
        },
        {
          "name": "generation",
          "type": "uint16"
        },
        {
          "name": "birthTime",
          "type": "uint64"
        },
        {
          "name": "siringPartnerID",
          "type": "uint256"
        },
        {
          "name": "siringCD",
          "type": "uint256"
        },
        {
          "name": "forSale",
          "type": "bool"
        }
      ],
      "payable": false,
      "stateMutability": "view",
      "type": "function",
      "signature": "0xa2d1aeb6"
    },
    {
      "constant": false,
      "inputs": [
        {
          "name": "_to",
          "type": "address"
        },
        {
          "name": "_tokenId",
          "type": "uint256"
        }
      ],
      "name": "transfer",
      "outputs": [],
      "payable": false,
      "stateMutability": "nonpayable",
      "type": "function",
      "signature": "0xa9059cbb"
    },
    {
      "constant": true,
      "inputs": [
        {
          "name": "",
          "type": "uint256"
        }
      ],
      "name": "SeabyToOwner",
      "outputs": [
        {
          "name": "",
          "type": "address"
        }
      ],
      "payable": false,
      "stateMutability": "view",
      "type": "function",
      "signature": "0xaaf34036"
    },
    {
      "constant": false,
      "inputs": [
        {
          "name": "_tokenId",
          "type": "uint256"
        }
      ],
      "name": "disApprove",
      "outputs": [],
      "payable": false,
      "stateMutability": "nonpayable",
      "type": "function",
      "signature": "0xacd79bde"
    },
    {
      "constant": true,
      "inputs": [],
      "name": "getAllSeabies",
      "outputs": [
        {
          "name": "",
          "type": "uint256[]"
        }
      ],
      "payable": false,
      "stateMutability": "view",
      "type": "function",
      "signature": "0xadaa73ba"
    },
    {
      "constant": false,
      "inputs": [
        {
          "name": "_name",
          "type": "string"
        }
      ],
      "name": "createRandomSeaby",
      "outputs": [],
      "payable": false,
      "stateMutability": "nonpayable",
      "type": "function",
      "signature": "0xaf9336e9"
    },
    {
      "constant": false,
      "inputs": [
        {
          "name": "_tokenId",
          "type": "uint256"
        }
      ],
      "name": "takeOwnership",
      "outputs": [],
      "payable": false,
      "stateMutability": "nonpayable",
      "type": "function",
      "signature": "0xb2e6ceeb"
    },
    {
      "constant": false,
      "inputs": [
        {
          "name": "_seabyId",
          "type": "uint256"
        },
        {
          "name": "_newName",
          "type": "string"
        }
      ],
      "name": "changeName",
      "outputs": [],
      "payable": false,
      "stateMutability": "nonpayable",
      "type": "function",
      "signature": "0xc39cbef1"
    },
    {
      "constant": false,
      "inputs": [
        {
          "name": "_seabyId",
          "type": "uint256"
        }
      ],
      "name": "changeForSaleStatus",
      "outputs": [],
      "payable": false,
      "stateMutability": "nonpayable",
      "type": "function",
      "signature": "0xcb87f4c5"
    },
    {
      "constant": false,
      "inputs": [
        {
          "name": "newOwner",
          "type": "address"
        }
      ],
      "name": "transferOwnership",
      "outputs": [],
      "payable": false,
      "stateMutability": "nonpayable",
      "type": "function",
      "signature": "0xf2fde38b"
    },
    {
      "constant": true,
      "inputs": [
        {
          "name": "",
          "type": "uint256"
        }
      ],
      "name": "seabyApprovals",
      "outputs": [
        {
          "name": "",
          "type": "address"
        }
      ],
      "payable": false,
      "stateMutability": "view",
      "type": "function",
      "signature": "0xf76073a8"
    },
    {
      "anonymous": false,
      "inputs": [
        {
          "indexed": true,
          "name": "_buyer",
          "type": "address"
        },
        {
          "indexed": true,
          "name": "_seabyId",
          "type": "uint256"
        },
        {
          "indexed": true,
          "name": "_price",
          "type": "uint256"
        }
      ],
      "name": "requestToBuy",
      "type": "event",
      "signature": "0x550b77c04bf2c776ace74fe2e4ee3f927225fe30a92b69926e9896836a990e50"
    },
    {
      "anonymous": false,
      "inputs": [],
      "name": "DisApproval",
      "type": "event",
      "signature": "0x7a603d9fb6ee04054058588ee6eb211cc4b11f5d9dccbe88a569cd74fe9185cb"
    },
    {
      "anonymous": false,
      "inputs": [
        {
          "indexed": true,
          "name": "from",
          "type": "address"
        },
        {
          "indexed": true,
          "name": "to",
          "type": "address"
        },
        {
          "indexed": true,
          "name": "tokenId",
          "type": "uint256"
        }
      ],
      "name": "Transfer",
      "type": "event",
      "signature": "0xddf252ad1be2c89b69c2b068fc378daa952ba7f163c4a11628f55a4df523b3ef"
    },
    {
      "anonymous": false,
      "inputs": [
        {
          "indexed": true,
          "name": "owner",
          "type": "address"
        },
        {
          "indexed": true,
          "name": "approved",
          "type": "address"
        },
        {
          "indexed": true,
          "name": "tokenId",
          "type": "uint256"
        }
      ],
      "name": "Approval",
      "type": "event",
      "signature": "0x8c5be1e5ebec7d5bd14f71427d1e84f3dd0314c0f7b2291e5b200ac8c7c3b925"
    },
    {
      "anonymous": false,
      "inputs": [
        {
          "indexed": true,
          "name": "seabyId",
          "type": "uint256"
        },
        {
          "indexed": true,
          "name": "name",
          "type": "string"
        }
      ],
      "name": "SeabyBirth",
      "type": "event",
      "signature": "0x36026835b208a23745db38d36cced019e4c2b46b073d40f86a67baccb51e6fa7"
    },
    {
      "anonymous": false,
      "inputs": [
        {
          "indexed": true,
          "name": "from",
          "type": "address"
        },
        {
          "indexed": true,
          "name": "to",
          "type": "address"
        },
        {
          "indexed": true,
          "name": "seabyId",
          "type": "uint256"
        }
      ],
      "name": "TransferFinish",
      "type": "event",
      "signature": "0x615a90b6cfa77287f9e381f0aed394618bcfa338a2b4039eb03854fd16277f6d"
    },
    {
      "anonymous": false,
      "inputs": [
        {
          "indexed": true,
          "name": "previousOwner",
          "type": "address"
        },
        {
          "indexed": true,
          "name": "newOwner",
          "type": "address"
        }
      ],
      "name": "OwnershipTransferred",
      "type": "event",
      "signature": "0x8be0079c531659141344cd1fd0a4f28419497f9722a3daafe3b4186f6b6457e0"
    },
    {
      "constant": false,
      "inputs": [
        {
          "name": "_seabyId",
          "type": "uint256"
        }
      ],
      "name": "buy",
      "outputs": [],
      "payable": true,
      "stateMutability": "payable",
      "type": "function",
      "signature": "0xd96a094a"
    },
    {
      "constant": false,
      "inputs": [],
      "name": "approveCurTransaction",
      "outputs": [],
      "payable": false,
      "stateMutability": "nonpayable",
      "type": "function",
      "signature": "0x64dfe1cb"
    },
    {
      "constant": false,
      "inputs": [],
      "name": "rejectTransaction",
      "outputs": [],
      "payable": false,
      "stateMutability": "nonpayable",
      "type": "function",
      "signature": "0x3c1c2387"
    }
  ],
  "bytecode": "0x60806040526004600060146101000a81548160ff021916908360ff16021790555067016345785d8a00006009556000600a60006101000a81548160ff021916908315150217905550336000806101000a81548173ffffffffffffffffffffffffffffffffffffffff021916908373ffffffffffffffffffffffffffffffffffffffff160217905550612543806100966000396000f3fe60806040526004361061013e576000357c0100000000000000000000000000000000000000000000000000000000900463ffffffff168063095ea7b3146101435780630e03ebda1461019e5780633c1c23871461029557806342edeccc146102ac5780634e260e99146102d75780635e69018214610367578063628c45611461040d5780636352211e1461048857806364dfe1cb1461050357806370a082311461051a5780638546d0021461057f5780638da5cb5b146105d2578063a2d1aeb614610629578063a9059cbb14610720578063aaf340361461077b578063acd79bde146107f6578063adaa73ba14610831578063af9336e91461089d578063b2e6ceeb14610965578063c39cbef1146109a0578063cb87f4c514610a30578063d96a094a14610a6b578063f2fde38b14610a99578063f76073a814610aea575b600080fd5b34801561014f57600080fd5b5061019c6004803603604081101561016657600080fd5b81019080803573ffffffffffffffffffffffffffffffffffffffff16906020019092919080359060200190929190505050610b65565b005b3480156101aa57600080fd5b506101d7600480360360208110156101c157600080fd5b8101908080359060200190929190505050610c2b565b60405180806020018761ffff1661ffff1681526020018667ffffffffffffffff1667ffffffffffffffff16815260200185815260200184815260200183151515158152602001828103825288818151815260200191508051906020019080838360005b8381101561025557808201518184015260208101905061023a565b50505050905090810190601f1680156102825780820380516001836020036101000a031916815260200191505b5097505050505050505060405180910390f35b3480156102a157600080fd5b506102aa610d50565b005b3480156102b857600080fd5b506102c1610f3b565b6040518082815260200191505060405180910390f35b3480156102e357600080fd5b50610310600480360360208110156102fa57600080fd5b8101908080359060200190929190505050610f4a565b6040518080602001828103825283818151815260200191508051906020019060200280838360005b83811015610353578082015181840152602081019050610338565b505050509050019250505060405180910390f35b34801561037357600080fd5b506103b66004803603602081101561038a57600080fd5b81019080803573ffffffffffffffffffffffffffffffffffffffff16906020019092919050505061103a565b6040518080602001828103825283818151815260200191508051906020019060200280838360005b838110156103f95780820151818401526020810190506103de565b505050509050019250505060405180910390f35b34801561041957600080fd5b506104466004803603602081101561043057600080fd5b8101908080359060200190929190505050611169565b604051808273ffffffffffffffffffffffffffffffffffffffff1673ffffffffffffffffffffffffffffffffffffffff16815260200191505060405180910390f35b34801561049457600080fd5b506104c1600480360360208110156104ab57600080fd5b810190808035906020019092919050505061119c565b604051808273ffffffffffffffffffffffffffffffffffffffff1673ffffffffffffffffffffffffffffffffffffffff16815260200191505060405180910390f35b34801561050f57600080fd5b506105186111d9565b005b34801561052657600080fd5b506105696004803603602081101561053d57600080fd5b81019080803573ffffffffffffffffffffffffffffffffffffffff169060200190929190505050611499565b6040518082815260200191505060405180910390f35b34801561058b57600080fd5b506105b8600480360360208110156105a257600080fd5b81019080803590602001909291905050506114e2565b604051808215151515815260200191505060405180910390f35b3480156105de57600080fd5b506105e7611519565b604051808273ffffffffffffffffffffffffffffffffffffffff1673ffffffffffffffffffffffffffffffffffffffff16815260200191505060405180910390f35b34801561063557600080fd5b506106626004803603602081101561064c57600080fd5b810190808035906020019092919050505061153e565b60405180806020018761ffff1661ffff1681526020018667ffffffffffffffff1667ffffffffffffffff16815260200185815260200184815260200183151515158152602001828103825288818151815260200191508051906020019080838360005b838110156106e05780820151818401526020810190506106c5565b50505050905090810190601f16801561070d5780820380516001836020036101000a031916815260200191505b5097505050505050505060405180910390f35b34801561072c57600080fd5b506107796004803603604081101561074357600080fd5b81019080803573ffffffffffffffffffffffffffffffffffffffff16906020019092919080359060200190929190505050611650565b005b34801561078757600080fd5b506107b46004803603602081101561079e57600080fd5b81019080803590602001909291905050506116ff565b604051808273ffffffffffffffffffffffffffffffffffffffff1673ffffffffffffffffffffffffffffffffffffffff16815260200191505060405180910390f35b34801561080257600080fd5b5061082f6004803603602081101561081957600080fd5b8101908080359060200190929190505050611732565b005b34801561083d57600080fd5b506108466117c8565b6040518080602001828103825283818151815260200191508051906020019060200280838360005b8381101561088957808201518184015260208101905061086e565b505050509050019250505060405180910390f35b3480156108a957600080fd5b50610963600480360360208110156108c057600080fd5b81019080803590602001906401000000008111156108dd57600080fd5b8201836020820111156108ef57600080fd5b8035906020019184600183028401116401000000008311171561091157600080fd5b91908080601f016020809104026020016040519081016040528093929190818152602001838380828437600081840152601f19601f820116905080830192505050505050509192919290505050611853565b005b34801561097157600080fd5b5061099e6004803603602081101561098857600080fd5b810190808035906020019092919050505061190c565b005b3480156109ac57600080fd5b50610a2e600480360360408110156109c357600080fd5b8101908080359060200190929190803590602001906401000000008111156109ea57600080fd5b8201836020820111156109fc57600080fd5b80359060200191846001830284011164010000000083111715610a1e57600080fd5b9091929391929390505050611995565b005b348015610a3c57600080fd5b50610a6960048036036020811015610a5357600080fd5b8101908080359060200190929190505050611a39565b005b610a9760048036036020811015610a8157600080fd5b8101908080359060200190929190505050611b11565b005b348015610aa557600080fd5b50610ae860048036036020811015610abc57600080fd5b81019080803573ffffffffffffffffffffffffffffffffffffffff169060200190929190505050611c6e565b005b348015610af657600080fd5b50610b2360048036036020811015610b0d57600080fd5b8101908080359060200190929190505050611dc3565b604051808273ffffffffffffffffffffffffffffffffffffffff1673ffffffffffffffffffffffffffffffffffffffff16815260200191505060405180910390f35b610b6f3382611df6565b1515610b7a57600080fd5b816004600083815260200190815260200160002060006101000a81548173ffffffffffffffffffffffffffffffffffffffff021916908373ffffffffffffffffffffffffffffffffffffffff160217905550808273ffffffffffffffffffffffffffffffffffffffff163373ffffffffffffffffffffffffffffffffffffffff167f8c5be1e5ebec7d5bd14f71427d1e84f3dd0314c0f7b2291e5b200ac8c7c3b92560405160405180910390a45050565b6060600080600080600080600188815481101515610c4557fe5b90600052602060002090600602019050806000018054600181600116156101000203166002900480601f016020809104026020016040519081016040528092919081815260200182805460018160011615610100020316600290048015610ced5780601f10610cc257610100808354040283529160200191610ced565b820191906000526020600020905b815481529060010190602001808311610cd057829003601f168201915b505050505096508060010160009054906101000a900461ffff1695508060010160029054906101000a900467ffffffffffffffff16945080600201549350806003015492508060040160009054906101000a900460ff1691505091939550919395565b6008546002600082815260200190815260200160002060009054906101000a900473ffffffffffffffffffffffffffffffffffffffff1673ffffffffffffffffffffffffffffffffffffffff163373ffffffffffffffffffffffffffffffffffffffff16141515610dc057600080fd5b600a60009054906101000a900460ff161515610ddb57600080fd5b3373ffffffffffffffffffffffffffffffffffffffff16600760009054906101000a900473ffffffffffffffffffffffffffffffffffffffff1673ffffffffffffffffffffffffffffffffffffffff16141515610e3757600080fd5b600073ffffffffffffffffffffffffffffffffffffffff16600660009054906101000a900473ffffffffffffffffffffffffffffffffffffffff1673ffffffffffffffffffffffffffffffffffffffff1614151515610e9557600080fd5b600660009054906101000a900473ffffffffffffffffffffffffffffffffffffffff1673ffffffffffffffffffffffffffffffffffffffff166108fc3073ffffffffffffffffffffffffffffffffffffffff16319081150290604051600060405180830381858888f19350505050507f7a603d9fb6ee04054058588ee6eb211cc4b11f5d9dccbe88a569cd74fe9185cb60405160405180910390a1610f38611e62565b50565b60006001808054905003905090565b606080600060149054906101000a900460ff1660ff16604051908082528060200260200182016040528015610f8e5781602001602082028038833980820191505090505b50905060008090505b600060149054906101000a900460ff1660ff168160ff16101561103057600184815481101515610fc357fe5b906000526020600020906006020160050160008260ff1660ff16815260200190815260200160002060009054906101000a900461ffff16828260ff1681518110151561100b57fe5b9060200190602002019061ffff16908161ffff16815250508080600101915050610f97565b5080915050919050565b606080600360008473ffffffffffffffffffffffffffffffffffffffff1673ffffffffffffffffffffffffffffffffffffffff168152602001908152602001600020546040519080825280602002602001820160405280156110ab5781602001602082028038833980820191505090505b509050600080905060008090505b60018054905081101561115e578473ffffffffffffffffffffffffffffffffffffffff166002600083815260200190815260200160002060009054906101000a900473ffffffffffffffffffffffffffffffffffffffff1673ffffffffffffffffffffffffffffffffffffffff1614156111515780838380600101945081518110151561114257fe5b90602001906020020181815250505b80806001019150506110b9565b508192505050919050565b60056020528060005260406000206000915054906101000a900473ffffffffffffffffffffffffffffffffffffffff1681565b60006002600083815260200190815260200160002060009054906101000a900473ffffffffffffffffffffffffffffffffffffffff169050919050565b6008546002600082815260200190815260200160002060009054906101000a900473ffffffffffffffffffffffffffffffffffffffff1673ffffffffffffffffffffffffffffffffffffffff163373ffffffffffffffffffffffffffffffffffffffff1614151561124957600080fd5b600a60009054906101000a900460ff16151561126457600080fd5b3373ffffffffffffffffffffffffffffffffffffffff16600760009054906101000a900473ffffffffffffffffffffffffffffffffffffffff1673ffffffffffffffffffffffffffffffffffffffff161415156112c057600080fd5b600073ffffffffffffffffffffffffffffffffffffffff16600660009054906101000a900473ffffffffffffffffffffffffffffffffffffffff1673ffffffffffffffffffffffffffffffffffffffff161415151561131e57600080fd5b600760009054906101000a900473ffffffffffffffffffffffffffffffffffffffff1673ffffffffffffffffffffffffffffffffffffffff166108fc3073ffffffffffffffffffffffffffffffffffffffff16319081150290604051600060405180830381858888f19350505050156113f2576113bf600660009054906101000a900473ffffffffffffffffffffffffffffffffffffffff16600854610b65565b6113ed600660009054906101000a900473ffffffffffffffffffffffffffffffffffffffff16600854611650565b61148e565b600660009054906101000a900473ffffffffffffffffffffffffffffffffffffffff1673ffffffffffffffffffffffffffffffffffffffff166108fc3073ffffffffffffffffffffffffffffffffffffffff16319081150290604051600060405180830381858888f19350505050507f7a603d9fb6ee04054058588ee6eb211cc4b11f5d9dccbe88a569cd74fe9185cb60405160405180910390a15b611496611e62565b50565b6000600360008373ffffffffffffffffffffffffffffffffffffffff1673ffffffffffffffffffffffffffffffffffffffff168152602001908152602001600020549050919050565b60006001828154811015156114f357fe5b906000526020600020906006020160040160009054906101000a900460ff169050919050565b6000809054906101000a900473ffffffffffffffffffffffffffffffffffffffff1681565b60018181548110151561154d57fe5b9060005260206000209060060201600091509050806000018054600181600116156101000203166002900480601f0160208091040260200160405190810160405280929190818152602001828054600181600116156101000203166002900480156115f95780601f106115ce576101008083540402835291602001916115f9565b820191906000526020600020905b8154815290600101906020018083116115dc57829003601f168201915b5050505050908060010160009054906101000a900461ffff16908060010160029054906101000a900467ffffffffffffffff16908060020154908060030154908060040160009054906101000a900460ff16905086565b600073ffffffffffffffffffffffffffffffffffffffff168273ffffffffffffffffffffffffffffffffffffffff161415151561168c57600080fd5b3073ffffffffffffffffffffffffffffffffffffffff168273ffffffffffffffffffffffffffffffffffffffff16141515156116c757600080fd5b6116d13382611df6565b15156116dc57600080fd5b6116e5816114e2565b15156116f057600080fd5b6116fb338383611f1a565b5050565b60026020528060005260406000206000915054906101000a900473ffffffffffffffffffffffffffffffffffffffff1681565b61173c3382611df6565b151561174757600080fd5b336004600083815260200190815260200160002060006101000a81548173ffffffffffffffffffffffffffffffffffffffff021916908373ffffffffffffffffffffffffffffffffffffffff1602179055507f7a603d9fb6ee04054058588ee6eb211cc4b11f5d9dccbe88a569cd74fe9185cb60405160405180910390a150565b6060806001805490506040519080825280602002602001820160405280156117ff5781602001602082028038833980820191505090505b509050600080905060008090505b60018054905081101561184a5780838380600101945081518110151561182f57fe5b9060200190602002018181525050808060010191505061180d565b50819250505090565b60003390506060600060149054906101000a900460ff1660ff1660405190808252806020026020018201604052801561189b5781602001602082028038833980820191505090505b50905060008090505b600060149054906101000a900460ff1660ff168110156118f9576118c661210e565b82828151811015156118d457fe5b9060200190602002019061ffff16908161ffff168152505080806001019150506118a4565b5061190783600084846121cb565b505050565b3373ffffffffffffffffffffffffffffffffffffffff166004600083815260200190815260200160002060009054906101000a900473ffffffffffffffffffffffffffffffffffffffff1673ffffffffffffffffffffffffffffffffffffffff1614151561197957600080fd5b60006119848261119c565b9050611991813384611f1a565b5050565b826002600082815260200190815260200160002060009054906101000a900473ffffffffffffffffffffffffffffffffffffffff1673ffffffffffffffffffffffffffffffffffffffff163373ffffffffffffffffffffffffffffffffffffffff16141515611a0357600080fd5b8282600186815481101515611a1457fe5b90600052602060002090600602016000019190611a329291906123ab565b5050505050565b806002600082815260200190815260200160002060009054906101000a900473ffffffffffffffffffffffffffffffffffffffff1673ffffffffffffffffffffffffffffffffffffffff163373ffffffffffffffffffffffffffffffffffffffff16141515611aa757600080fd5b600182815481101515611ab657fe5b906000526020600020906006020160040160009054906101000a900460ff1615600183815481101515611ae557fe5b906000526020600020906006020160040160006101000a81548160ff0219169083151502179055505050565b600a60009054906101000a900460ff16151515611b2d57600080fd5b33600660006101000a81548173ffffffffffffffffffffffffffffffffffffffff021916908373ffffffffffffffffffffffffffffffffffffffff1602179055506002600082815260200190815260200160002060009054906101000a900473ffffffffffffffffffffffffffffffffffffffff16600760006101000a81548173ffffffffffffffffffffffffffffffffffffffff021916908373ffffffffffffffffffffffffffffffffffffffff160217905550806008819055506001600a60006101000a81548160ff0219169083151502179055503481600660009054906101000a900473ffffffffffffffffffffffffffffffffffffffff1673ffffffffffffffffffffffffffffffffffffffff167f550b77c04bf2c776ace74fe2e4ee3f927225fe30a92b69926e9896836a990e5060405160405180910390a450565b6000809054906101000a900473ffffffffffffffffffffffffffffffffffffffff1673ffffffffffffffffffffffffffffffffffffffff163373ffffffffffffffffffffffffffffffffffffffff16141515611cc957600080fd5b600073ffffffffffffffffffffffffffffffffffffffff168173ffffffffffffffffffffffffffffffffffffffff1614151515611d0557600080fd5b8073ffffffffffffffffffffffffffffffffffffffff166000809054906101000a900473ffffffffffffffffffffffffffffffffffffffff1673ffffffffffffffffffffffffffffffffffffffff167f8be0079c531659141344cd1fd0a4f28419497f9722a3daafe3b4186f6b6457e060405160405180910390a3806000806101000a81548173ffffffffffffffffffffffffffffffffffffffff021916908373ffffffffffffffffffffffffffffffffffffffff16021790555050565b60046020528060005260406000206000915054906101000a900473ffffffffffffffffffffffffffffffffffffffff1681565b60008273ffffffffffffffffffffffffffffffffffffffff166002600084815260200190815260200160002060009054906101000a900473ffffffffffffffffffffffffffffffffffffffff1673ffffffffffffffffffffffffffffffffffffffff1614905092915050565b6000600660006101000a81548173ffffffffffffffffffffffffffffffffffffffff021916908373ffffffffffffffffffffffffffffffffffffffff1602179055506000600760006101000a81548173ffffffffffffffffffffffffffffffffffffffff021916908373ffffffffffffffffffffffffffffffffffffffff160217905550600060088190555067016345785d8a00006009819055506000600a60006101000a81548160ff021916908315150217905550565b600360008373ffffffffffffffffffffffffffffffffffffffff1673ffffffffffffffffffffffffffffffffffffffff16815260200190815260200160002060008154809291906001019190505550816002600083815260200190815260200160002060006101000a81548173ffffffffffffffffffffffffffffffffffffffff021916908373ffffffffffffffffffffffffffffffffffffffff160217905550600073ffffffffffffffffffffffffffffffffffffffff168373ffffffffffffffffffffffffffffffffffffffff161415156120ae57600360008473ffffffffffffffffffffffffffffffffffffffff1673ffffffffffffffffffffffffffffffffffffffff16815260200190815260200160002060008154809291906001900391905055506005600082815260200190815260200160002060006101000a81549073ffffffffffffffffffffffffffffffffffffffff02191690556004600082815260200190815260200160002060006101000a81549073ffffffffffffffffffffffffffffffffffffffff02191690555b808273ffffffffffffffffffffffffffffffffffffffff168473ffffffffffffffffffffffffffffffffffffffff167f615a90b6cfa77287f9e381f0aed394618bcfa338a2b4039eb03854fd16277f6d60405160405180910390a4505050565b6000806003905060006003423384604051602001808481526020018373ffffffffffffffffffffffffffffffffffffffff1673ffffffffffffffffffffffffffffffffffffffff166c010000000000000000000000000281526014018260ff1660ff167f0100000000000000000000000000000000000000000000000000000000000000028152600101935050505060405160208183030381529060405280519060200120600190048115156121c057fe5b069050809250505090565b60006201518090506121db61242b565b60c0604051908101604052808781526020018661ffff1681526020014267ffffffffffffffff1681526020016000815260200183815260200160011515815250905060006001808390806001815401808255809150509060018203906000526020600020906006020160009091929091909150600082015181600001908051906020019061226a929190612472565b5060208201518160010160006101000a81548161ffff021916908361ffff16021790555060408201518160010160026101000a81548167ffffffffffffffff021916908367ffffffffffffffff160217905550606082015181600201556080820151816003015560a08201518160040160006101000a81548160ff02191690831515021790555050500390506123008185612315565b61230c60008683611f1a565b50505050505050565b600060018381548110151561232657fe5b9060005260206000209060060201905060008090505b82518160ff1610156123a557828160ff1681518110151561235957fe5b906020019060200201518260050160008360ff1660ff16815260200190815260200160002060006101000a81548161ffff021916908361ffff160217905550808060010191505061233c565b50505050565b828054600181600116156101000203166002900490600052602060002090601f016020900481019282601f106123ec57803560ff191683800117855561241a565b8280016001018555821561241a579182015b828111156124195782358255916020019190600101906123fe565b5b50905061242791906124f2565b5090565b60c06040519081016040528060608152602001600061ffff168152602001600067ffffffffffffffff16815260200160008152602001600081526020016000151581525090565b828054600181600116156101000203166002900490600052602060002090601f016020900481019282601f106124b357805160ff19168380011785556124e1565b828001600101855582156124e1579182015b828111156124e05782518255916020019190600101906124c5565b5b5090506124ee91906124f2565b5090565b61251491905b808211156125105760008160009055506001016124f8565b5090565b9056fea165627a7a72305820f6f4f617e51358ee98c20219f9c4d4a37787161f3b2880aa635444490145b61c0029",
  "source": "pragma solidity ^0.5.0;\n\nimport \"./Ownership.sol\";\nimport \"./SeabyBase.sol\";\ncontract Auction is Ownership, SeabyBase {\n    address private buyer;\n    address private curOwner;\n    uint256 private tradingSeaby;\n    uint256 private seabyPrice = 0.1 ether;\n    bool startTransaction = false;\n    event requestToBuy(address indexed _buyer, uint indexed _seabyId, uint256 indexed _price);\n    \n    modifier isValidTrade() {\n        require(startTransaction);\n        require(curOwner == msg.sender);\n        require(buyer != address(0));\n        //require(address(this).balance != 0);\n        _;\n    }\n    \n    function buy(uint _seabyId) external payable {\n        // require(msg.value >= seabyPrice);\n        require(!startTransaction);\n        buyer = msg.sender;\n        curOwner = SeabyToOwner[_seabyId];\n        tradingSeaby = _seabyId;\n        startTransaction = true;\n        emit requestToBuy(buyer, _seabyId, msg.value);\n    }\n    \n    function approveCurTransaction() external requireOwnerOf(tradingSeaby) isValidTrade(){\n        if (address(uint160(curOwner)).send(address(this).balance)) {\n            approve(buyer, tradingSeaby);\n            transfer(buyer, tradingSeaby);\n        } else {\n            address(uint160(buyer)).send(address(this).balance);\n            emit DisApproval();\n        }\n        cleanAuction();\n    }\n    function rejectTransaction() external requireOwnerOf(tradingSeaby) isValidTrade(){\n        address(uint160(buyer)).send(address(this).balance);\n        emit DisApproval();\n        cleanAuction();\n    }\n    function cleanAuction() private {\n        buyer = address(0);\n        curOwner = address(0);\n        tradingSeaby = 0;\n        seabyPrice = 0.1 ether;\n        startTransaction = false;\n    }\n}",
  "sourcePath": "/home/josh/projects/Seathereum/client/src/truffle/contracts/Auction.sol",
  "compiler": {
    "name": "solc",
    "version": "0.5.0+commit.1d4f565a.Emscripten.clang"
  },
  "schemaVersion": "3.0.1",
  "updatedAt": "2019-05-04T19:27:03.614Z",
  "devdoc": {
    "methods": {
      "transferOwnership(address)": {
        "details": "Allows the current owner to transfer control of the contract to a newOwner.",
        "params": {
          "newOwner": "The address to transfer ownership to."
        }
      }
    }
  },
  "userdoc": {
    "methods": {}
  }
}