{
  "contractName": "Ownership",
  "abi": [
    {
      "constant": true,
      "inputs": [
        {
          "name": "_seabyId",
          "type": "uint256"
        }
      ],
      "name": "getFeaturesById",
      "outputs": [
        {
          "name": "",
          "type": "uint16[]"
        }
      ],
      "payable": false,
      "stateMutability": "view",
      "type": "function"
    },
    {
      "constant": true,
      "inputs": [
        {
          "name": "",
          "type": "uint256"
        }
      ],
      "name": "seabyAllowedBreedToAddress",
      "outputs": [
        {
          "name": "",
          "type": "address"
        }
      ],
      "payable": false,
      "stateMutability": "view",
      "type": "function"
    },
    {
      "constant": true,
      "inputs": [],
      "name": "owner",
      "outputs": [
        {
          "name": "",
          "type": "address"
        }
      ],
      "payable": false,
      "stateMutability": "view",
      "type": "function"
    },
    {
      "constant": true,
      "inputs": [
        {
          "name": "",
          "type": "uint256"
        }
      ],
      "name": "seabies",
      "outputs": [
        {
          "name": "name",
          "type": "string"
        },
        {
          "name": "generation",
          "type": "uint16"
        },
        {
          "name": "birthTime",
          "type": "uint64"
        },
        {
          "name": "siringPartnerID",
          "type": "uint256"
        },
        {
          "name": "siringCD",
          "type": "uint256"
        },
        {
          "name": "forSale",
          "type": "bool"
        }
      ],
      "payable": false,
      "stateMutability": "view",
      "type": "function"
    },
    {
      "constant": true,
      "inputs": [
        {
          "name": "",
          "type": "uint256"
        }
      ],
      "name": "SeabyToOwner",
      "outputs": [
        {
          "name": "",
          "type": "address"
        }
      ],
      "payable": false,
      "stateMutability": "view",
      "type": "function"
    },
    {
      "constant": false,
      "inputs": [
        {
          "name": "_name",
          "type": "string"
        }
      ],
      "name": "createRandomSeaby",
      "outputs": [],
      "payable": false,
      "stateMutability": "nonpayable",
      "type": "function"
    },
    {
      "constant": false,
      "inputs": [
        {
          "name": "newOwner",
          "type": "address"
        }
      ],
      "name": "transferOwnership",
      "outputs": [],
      "payable": false,
      "stateMutability": "nonpayable",
      "type": "function"
    },
    {
      "constant": true,
      "inputs": [
        {
          "name": "",
          "type": "uint256"
        }
      ],
      "name": "seabyApprovals",
      "outputs": [
        {
          "name": "",
          "type": "address"
        }
      ],
      "payable": false,
      "stateMutability": "view",
      "type": "function"
    },
    {
      "anonymous": false,
      "inputs": [
        {
          "indexed": true,
          "name": "seabyId",
          "type": "uint256"
        },
        {
          "indexed": true,
          "name": "name",
          "type": "string"
        }
      ],
      "name": "SeabyBirth",
      "type": "event"
    },
    {
      "anonymous": false,
      "inputs": [
        {
          "indexed": true,
          "name": "from",
          "type": "address"
        },
        {
          "indexed": true,
          "name": "to",
          "type": "address"
        },
        {
          "indexed": true,
          "name": "seabyId",
          "type": "uint256"
        }
      ],
      "name": "TransferFinish",
      "type": "event"
    },
    {
      "anonymous": false,
      "inputs": [
        {
          "indexed": true,
          "name": "previousOwner",
          "type": "address"
        },
        {
          "indexed": true,
          "name": "newOwner",
          "type": "address"
        }
      ],
      "name": "OwnershipTransferred",
      "type": "event"
    },
    {
      "constant": true,
      "inputs": [
        {
          "name": "_owner",
          "type": "address"
        }
      ],
      "name": "balanceOf",
      "outputs": [
        {
          "name": "_balance",
          "type": "uint256"
        }
      ],
      "payable": false,
      "stateMutability": "view",
      "type": "function"
    },
    {
      "constant": true,
      "inputs": [
        {
          "name": "_tokenId",
          "type": "uint256"
        }
      ],
      "name": "ownerOf",
      "outputs": [
        {
          "name": "_owner",
          "type": "address"
        }
      ],
      "payable": false,
      "stateMutability": "view",
      "type": "function"
    },
    {
      "constant": false,
      "inputs": [
        {
          "name": "_to",
          "type": "address"
        },
        {
          "name": "_tokenId",
          "type": "uint256"
        }
      ],
      "name": "transfer",
      "outputs": [],
      "payable": false,
      "stateMutability": "nonpayable",
      "type": "function"
    },
    {
      "constant": false,
      "inputs": [
        {
          "name": "_to",
          "type": "address"
        },
        {
          "name": "_tokenId",
          "type": "uint256"
        }
      ],
      "name": "approve",
      "outputs": [],
      "payable": false,
      "stateMutability": "nonpayable",
      "type": "function"
    },
    {
      "constant": false,
      "inputs": [
        {
          "name": "_tokenId",
          "type": "uint256"
        }
      ],
      "name": "disApprove",
      "outputs": [],
      "payable": false,
      "stateMutability": "nonpayable",
      "type": "function"
    },
    {
      "constant": false,
      "inputs": [
        {
          "name": "_tokenId",
          "type": "uint256"
        }
      ],
      "name": "takeOwnership",
      "outputs": [],
      "payable": false,
      "stateMutability": "nonpayable",
      "type": "function"
    },
    {
      "constant": true,
      "inputs": [
        {
          "name": "_tokenId",
          "type": "uint256"
        }
      ],
      "name": "isForSale",
      "outputs": [
        {
          "name": "",
          "type": "bool"
        }
      ],
      "payable": false,
      "stateMutability": "view",
      "type": "function"
    },
    {
      "constant": true,
      "inputs": [],
      "name": "totalSeaby",
      "outputs": [
        {
          "name": "",
          "type": "uint256"
        }
      ],
      "payable": false,
      "stateMutability": "view",
      "type": "function"
    }
  ],
  "bytecode": "0x60806040526004600060146101000a81548160ff021916908360ff160217905550336000806101000a81548173ffffffffffffffffffffffffffffffffffffffff021916908373ffffffffffffffffffffffffffffffffffffffff1602179055506115e48061006f6000396000f3fe6080604052600436106100e6576000357c0100000000000000000000000000000000000000000000000000000000900463ffffffff168063095ea7b3146100eb57806342edeccc146101465780634e260e9914610171578063628c4561146102015780636352211e1461027c57806370a08231146102f75780638546d0021461035c5780638da5cb5b146103af578063a2d1aeb614610406578063a9059cbb146104fd578063aaf3403614610558578063acd79bde146105d3578063af9336e91461060e578063b2e6ceeb146106d6578063f2fde38b14610711578063f76073a814610762575b600080fd5b3480156100f757600080fd5b506101446004803603604081101561010e57600080fd5b81019080803573ffffffffffffffffffffffffffffffffffffffff169060200190929190803590602001909291905050506107dd565b005b34801561015257600080fd5b5061015b610848565b6040518082815260200191505060405180910390f35b34801561017d57600080fd5b506101aa6004803603602081101561019457600080fd5b8101908080359060200190929190505050610857565b6040518080602001828103825283818151815260200191508051906020019060200280838360005b838110156101ed5780820151818401526020810190506101d2565b505050509050019250505060405180910390f35b34801561020d57600080fd5b5061023a6004803603602081101561022457600080fd5b81019080803590602001909291905050506109b5565b604051808273ffffffffffffffffffffffffffffffffffffffff1673ffffffffffffffffffffffffffffffffffffffff16815260200191505060405180910390f35b34801561028857600080fd5b506102b56004803603602081101561029f57600080fd5b81019080803590602001909291905050506109e8565b604051808273ffffffffffffffffffffffffffffffffffffffff1673ffffffffffffffffffffffffffffffffffffffff16815260200191505060405180910390f35b34801561030357600080fd5b506103466004803603602081101561031a57600080fd5b81019080803573ffffffffffffffffffffffffffffffffffffffff169060200190929190505050610a25565b6040518082815260200191505060405180910390f35b34801561036857600080fd5b506103956004803603602081101561037f57600080fd5b8101908080359060200190929190505050610a6e565b604051808215151515815260200191505060405180910390f35b3480156103bb57600080fd5b506103c4610aa5565b604051808273ffffffffffffffffffffffffffffffffffffffff1673ffffffffffffffffffffffffffffffffffffffff16815260200191505060405180910390f35b34801561041257600080fd5b5061043f6004803603602081101561042957600080fd5b8101908080359060200190929190505050610aca565b60405180806020018761ffff1661ffff1681526020018667ffffffffffffffff1667ffffffffffffffff16815260200185815260200184815260200183151515158152602001828103825288818151815260200191508051906020019080838360005b838110156104bd5780820151818401526020810190506104a2565b50505050905090810190601f1680156104ea5780820380516001836020036101000a031916815260200191505b5097505050505050505060405180910390f35b34801561050957600080fd5b506105566004803603604081101561052057600080fd5b81019080803573ffffffffffffffffffffffffffffffffffffffff16906020019092919080359060200190929190505050610bdc565b005b34801561056457600080fd5b506105916004803603602081101561057b57600080fd5b8101908080359060200190929190505050610c8b565b604051808273ffffffffffffffffffffffffffffffffffffffff1673ffffffffffffffffffffffffffffffffffffffff16815260200191505060405180910390f35b3480156105df57600080fd5b5061060c600480360360208110156105f657600080fd5b8101908080359060200190929190505050610cbe565b005b34801561061a57600080fd5b506106d46004803603602081101561063157600080fd5b810190808035906020019064010000000081111561064e57600080fd5b82018360208201111561066057600080fd5b8035906020019184600183028401116401000000008311171561068257600080fd5b91908080601f016020809104026020016040519081016040528093929190818152602001838380828437600081840152601f19601f820116905080830192505050505050509192919290505050610d28565b005b3480156106e257600080fd5b5061070f600480360360208110156106f957600080fd5b8101908080359060200190929190505050610de1565b005b34801561071d57600080fd5b506107606004803603602081101561073457600080fd5b81019080803573ffffffffffffffffffffffffffffffffffffffff169060200190929190505050610e6a565b005b34801561076e57600080fd5b5061079b6004803603602081101561078557600080fd5b8101908080359060200190929190505050610fbf565b604051808273ffffffffffffffffffffffffffffffffffffffff1673ffffffffffffffffffffffffffffffffffffffff16815260200191505060405180910390f35b6107e73382610ff2565b15156107f257600080fd5b816004600083815260200190815260200160002060006101000a81548173ffffffffffffffffffffffffffffffffffffffff021916908373ffffffffffffffffffffffffffffffffffffffff1602179055505050565b60006001808054905003905090565b60606002600083815260200190815260200160002060009054906101000a900473ffffffffffffffffffffffffffffffffffffffff1673ffffffffffffffffffffffffffffffffffffffff163373ffffffffffffffffffffffffffffffffffffffff161415156108c657600080fd5b6060600060149054906101000a900460ff1660ff166040519080825280602002602001820160405280156109095781602001602082028038833980820191505090505b50905060008090505b600060149054906101000a900460ff1660ff168160ff1610156109ab5760018481548110151561093e57fe5b906000526020600020906006020160050160008260ff1660ff16815260200190815260200160002060009054906101000a900461ffff16828260ff1681518110151561098657fe5b9060200190602002019061ffff16908161ffff16815250508080600101915050610912565b5080915050919050565b60056020528060005260406000206000915054906101000a900473ffffffffffffffffffffffffffffffffffffffff1681565b60006002600083815260200190815260200160002060009054906101000a900473ffffffffffffffffffffffffffffffffffffffff169050919050565b6000600360008373ffffffffffffffffffffffffffffffffffffffff1673ffffffffffffffffffffffffffffffffffffffff168152602001908152602001600020549050919050565b6000600182815481101515610a7f57fe5b906000526020600020906006020160040160009054906101000a900460ff169050919050565b6000809054906101000a900473ffffffffffffffffffffffffffffffffffffffff1681565b600181815481101515610ad957fe5b9060005260206000209060060201600091509050806000018054600181600116156101000203166002900480601f016020809104026020016040519081016040528092919081815260200182805460018160011615610100020316600290048015610b855780601f10610b5a57610100808354040283529160200191610b85565b820191906000526020600020905b815481529060010190602001808311610b6857829003601f168201915b5050505050908060010160009054906101000a900461ffff16908060010160029054906101000a900467ffffffffffffffff16908060020154908060030154908060040160009054906101000a900460ff16905086565b600073ffffffffffffffffffffffffffffffffffffffff168273ffffffffffffffffffffffffffffffffffffffff1614151515610c1857600080fd5b3073ffffffffffffffffffffffffffffffffffffffff168273ffffffffffffffffffffffffffffffffffffffff1614151515610c5357600080fd5b610c5d3382610ff2565b1515610c6857600080fd5b610c7181610a6e565b1515610c7c57600080fd5b610c8733838361105e565b5050565b60026020528060005260406000206000915054906101000a900473ffffffffffffffffffffffffffffffffffffffff1681565b610cc83382610ff2565b1515610cd357600080fd5b336004600083815260200190815260200160002060006101000a81548173ffffffffffffffffffffffffffffffffffffffff021916908373ffffffffffffffffffffffffffffffffffffffff16021790555050565b60003390506060600060149054906101000a900460ff1660ff16604051908082528060200260200182016040528015610d705781602001602082028038833980820191505090505b50905060008090505b600060149054906101000a900460ff1660ff16811015610dce57610d9b6111f7565b8282815181101515610da957fe5b9060200190602002019061ffff16908161ffff16815250508080600101915050610d79565b50610ddc83600084846112ec565b505050565b3373ffffffffffffffffffffffffffffffffffffffff166004600083815260200190815260200160002060009054906101000a900473ffffffffffffffffffffffffffffffffffffffff1673ffffffffffffffffffffffffffffffffffffffff16141515610e4e57600080fd5b6000610e59826109e8565b9050610e6681338461105e565b5050565b6000809054906101000a900473ffffffffffffffffffffffffffffffffffffffff1673ffffffffffffffffffffffffffffffffffffffff163373ffffffffffffffffffffffffffffffffffffffff16141515610ec557600080fd5b600073ffffffffffffffffffffffffffffffffffffffff168173ffffffffffffffffffffffffffffffffffffffff1614151515610f0157600080fd5b8073ffffffffffffffffffffffffffffffffffffffff166000809054906101000a900473ffffffffffffffffffffffffffffffffffffffff1673ffffffffffffffffffffffffffffffffffffffff167f8be0079c531659141344cd1fd0a4f28419497f9722a3daafe3b4186f6b6457e060405160405180910390a3806000806101000a81548173ffffffffffffffffffffffffffffffffffffffff021916908373ffffffffffffffffffffffffffffffffffffffff16021790555050565b60046020528060005260406000206000915054906101000a900473ffffffffffffffffffffffffffffffffffffffff1681565b60008273ffffffffffffffffffffffffffffffffffffffff166002600084815260200190815260200160002060009054906101000a900473ffffffffffffffffffffffffffffffffffffffff1673ffffffffffffffffffffffffffffffffffffffff1614905092915050565b600360008373ffffffffffffffffffffffffffffffffffffffff1673ffffffffffffffffffffffffffffffffffffffff16815260200190815260200160002060008154809291906001019190505550816002600083815260200190815260200160002060006101000a81548173ffffffffffffffffffffffffffffffffffffffff021916908373ffffffffffffffffffffffffffffffffffffffff160217905550600073ffffffffffffffffffffffffffffffffffffffff168373ffffffffffffffffffffffffffffffffffffffff161415156111f257600360008473ffffffffffffffffffffffffffffffffffffffff1673ffffffffffffffffffffffffffffffffffffffff16815260200190815260200160002060008154809291906001900391905055506005600082815260200190815260200160002060006101000a81549073ffffffffffffffffffffffffffffffffffffffff02191690556004600082815260200190815260200160002060006101000a81549073ffffffffffffffffffffffffffffffffffffffff02191690555b505050565b6000806003905060006064423384604051602001808481526020018373ffffffffffffffffffffffffffffffffffffffff1673ffffffffffffffffffffffffffffffffffffffff166c010000000000000000000000000281526014018260ff1660ff167f0100000000000000000000000000000000000000000000000000000000000000028152600101935050505060405160208183030381529060405280519060200120600190048115156112a957fe5b0690506021811115156112c1576001925050506112e9565b6021811180156112d2575060438111155b156112e2576002925050506112e9565b6003925050505b90565b60006201518090506112fc6114cc565b60c0604051908101604052808781526020018661ffff1681526020014267ffffffffffffffff1681526020016000815260200183815260200160011515815250905060006001808390806001815401808255809150509060018203906000526020600020906006020160009091929091909150600082015181600001908051906020019061138b929190611513565b5060208201518160010160006101000a81548161ffff021916908361ffff16021790555060408201518160010160026101000a81548167ffffffffffffffff021916908367ffffffffffffffff160217905550606082015181600201556080820151816003015560a08201518160040160006101000a81548160ff02191690831515021790555050500390506114218185611436565b61142d6000868361105e565b50505050505050565b600060018381548110151561144757fe5b9060005260206000209060060201905060008090505b82518160ff1610156114c657828160ff1681518110151561147a57fe5b906020019060200201518260050160008360ff1660ff16815260200190815260200160002060006101000a81548161ffff021916908361ffff160217905550808060010191505061145d565b50505050565b60c06040519081016040528060608152602001600061ffff168152602001600067ffffffffffffffff16815260200160008152602001600081526020016000151581525090565b828054600181600116156101000203166002900490600052602060002090601f016020900481019282601f1061155457805160ff1916838001178555611582565b82800160010185558215611582579182015b82811115611581578251825591602001919060010190611566565b5b50905061158f9190611593565b5090565b6115b591905b808211156115b1576000816000905550600101611599565b5090565b9056fea165627a7a72305820a11f3a999da69e3140044d5918f2377db095d8003c5b9945602748ad512d31340029",
  "source": "pragma solidity ^0.5.0;\r\n\r\nimport \"./AquariumGarden.sol\";\r\n\r\ncontract Ownership is AquariumGarden {\r\n\r\n    function balanceOf(address _owner) public view returns (uint256 _balance) {\r\n        return ownerSeabyCount[_owner];\r\n    }\r\n\r\n    function ownerOf(uint256 _tokenId) public view returns (address _owner) {\r\n        return SeabyToOwner[_tokenId];\r\n    }\r\n    // sender transfer the given Seaby(_tokenId) to address (_to)\r\n    function transfer(address _to, uint256 _tokenId) public {\r\n        require(_to != address(0));\r\n        require(_to != address(this));\r\n        // require(_to != address(saleAuction));\r\n        // require(_to != address(siringAuction));\r\n        require(_isOwns(msg.sender, _tokenId));\r\n        require(isForSale(_tokenId));\r\n        _transfer(msg.sender, _to, _tokenId);\r\n    }\r\n\r\n    // approve Seaby(_tokenId) can be transfered to address(_to)\r\n    function approve(address _to, uint256 _tokenId) public {\r\n        require(_isOwns(msg.sender, _tokenId));\r\n        seabyApprovals[_tokenId] = _to;\r\n        //emit Approval(msg.sender, _to, _tokenId);\r\n    }\r\n    function disApprove(uint256 _tokenId) public {\r\n        require(_isOwns(msg.sender, _tokenId));\r\n        seabyApprovals[_tokenId] = msg.sender;\r\n    }\r\n\r\n    function takeOwnership(uint256 _tokenId) public {\r\n        require(seabyApprovals[_tokenId] == msg.sender);\r\n        address _owner = ownerOf(_tokenId);\r\n        _transfer(_owner, msg.sender, _tokenId);\r\n    }\r\n\r\n    //An internal function that will make sure if sender has a Seaby with the given id.\r\n    function _isOwns(address _sender, uint256 _tokenId) internal view returns (bool) {\r\n        return SeabyToOwner[_tokenId] == _sender;\r\n    }\r\n    function isForSale(uint256 _tokenId) public view returns (bool){\r\n        return seabies[_tokenId].forSale;\r\n    }\r\n    function totalSeaby() public view returns (uint){\r\n        return seabies.length - 1;\r\n    }\r\n}",
  "sourcePath": "C:\\Users\\chong\\Documents\\works\\KU_2019_Spring\\EECS_582\\Seathereum_final\\client\\src\\truffle\\contracts\\Ownership.sol",
  "compiler": {
    "name": "solc",
    "version": "0.5.0+commit.1d4f565a.Emscripten.clang"
  },
  "schemaVersion": "3.0.2",
  "updatedAt": "2019-04-20T01:27:26.409Z",
  "devdoc": {
    "methods": {
      "transferOwnership(address)": {
        "details": "Allows the current owner to transfer control of the contract to a newOwner.\r",
        "params": {
          "newOwner": "The address to transfer ownership to.\r"
        }
      }
    }
  },
  "userdoc": {
    "methods": {}
  }
}