{
  "contractName": "SeabyBase",
  "abi": [
    {
      "constant": true,
      "inputs": [
        {
          "name": "_seabyId",
          "type": "uint256"
        }
      ],
      "name": "getFeaturesById",
      "outputs": [
        {
          "name": "",
          "type": "uint16[]"
        }
      ],
      "payable": false,
      "stateMutability": "view",
      "type": "function",
      "signature": "0x4e260e99"
    },
    {
      "constant": true,
      "inputs": [
        {
          "name": "",
          "type": "uint256"
        }
      ],
      "name": "seabyAllowedBreedToAddress",
      "outputs": [
        {
          "name": "",
          "type": "address"
        }
      ],
      "payable": false,
      "stateMutability": "view",
      "type": "function",
      "signature": "0x628c4561"
    },
    {
      "constant": true,
      "inputs": [],
      "name": "owner",
      "outputs": [
        {
          "name": "",
          "type": "address"
        }
      ],
      "payable": false,
      "stateMutability": "view",
      "type": "function",
      "signature": "0x8da5cb5b"
    },
    {
      "constant": true,
      "inputs": [
        {
          "name": "",
          "type": "uint256"
        }
      ],
      "name": "seabies",
      "outputs": [
        {
          "name": "name",
          "type": "string"
        },
        {
          "name": "generation",
          "type": "uint16"
        },
        {
          "name": "birthTime",
          "type": "uint64"
        },
        {
          "name": "siringPartnerID",
          "type": "uint256"
        },
        {
          "name": "siringCD",
          "type": "uint256"
        },
        {
          "name": "forSale",
          "type": "bool"
        }
      ],
      "payable": false,
      "stateMutability": "view",
      "type": "function",
      "signature": "0xa2d1aeb6"
    },
    {
      "constant": true,
      "inputs": [
        {
          "name": "",
          "type": "uint256"
        }
      ],
      "name": "SeabyToOwner",
      "outputs": [
        {
          "name": "",
          "type": "address"
        }
      ],
      "payable": false,
      "stateMutability": "view",
      "type": "function",
      "signature": "0xaaf34036"
    },
    {
      "constant": false,
      "inputs": [
        {
          "name": "_name",
          "type": "string"
        }
      ],
      "name": "createRandomSeaby",
      "outputs": [],
      "payable": false,
      "stateMutability": "nonpayable",
      "type": "function",
      "signature": "0xaf9336e9"
    },
    {
      "constant": false,
      "inputs": [
        {
          "name": "newOwner",
          "type": "address"
        }
      ],
      "name": "transferOwnership",
      "outputs": [],
      "payable": false,
      "stateMutability": "nonpayable",
      "type": "function",
      "signature": "0xf2fde38b"
    },
    {
      "constant": true,
      "inputs": [
        {
          "name": "",
          "type": "uint256"
        }
      ],
      "name": "seabyApprovals",
      "outputs": [
        {
          "name": "",
          "type": "address"
        }
      ],
      "payable": false,
      "stateMutability": "view",
      "type": "function",
      "signature": "0xf76073a8"
    },
    {
      "anonymous": false,
      "inputs": [
        {
          "indexed": true,
          "name": "seabyId",
          "type": "uint256"
        },
        {
          "indexed": true,
          "name": "name",
          "type": "string"
        }
      ],
      "name": "SeabyBirth",
      "type": "event",
      "signature": "0x36026835b208a23745db38d36cced019e4c2b46b073d40f86a67baccb51e6fa7"
    },
    {
      "anonymous": false,
      "inputs": [
        {
          "indexed": true,
          "name": "from",
          "type": "address"
        },
        {
          "indexed": true,
          "name": "to",
          "type": "address"
        },
        {
          "indexed": true,
          "name": "seabyId",
          "type": "uint256"
        }
      ],
      "name": "TransferFinish",
      "type": "event",
      "signature": "0x615a90b6cfa77287f9e381f0aed394618bcfa338a2b4039eb03854fd16277f6d"
    },
    {
      "anonymous": false,
      "inputs": [
        {
          "indexed": true,
          "name": "previousOwner",
          "type": "address"
        },
        {
          "indexed": true,
          "name": "newOwner",
          "type": "address"
        }
      ],
      "name": "OwnershipTransferred",
      "type": "event",
      "signature": "0x8be0079c531659141344cd1fd0a4f28419497f9722a3daafe3b4186f6b6457e0"
    },
    {
      "constant": false,
      "inputs": [
        {
          "name": "_seabyId",
          "type": "uint256"
        },
        {
          "name": "_newName",
          "type": "string"
        }
      ],
      "name": "changeName",
      "outputs": [],
      "payable": false,
      "stateMutability": "nonpayable",
      "type": "function",
      "signature": "0xc39cbef1"
    },
    {
      "constant": false,
      "inputs": [
        {
          "name": "_seabyId",
          "type": "uint256"
        }
      ],
      "name": "changeForSaleStatus",
      "outputs": [],
      "payable": false,
      "stateMutability": "nonpayable",
      "type": "function",
      "signature": "0xcb87f4c5"
    },
    {
      "constant": true,
      "inputs": [],
      "name": "getAllSeabies",
      "outputs": [
        {
          "name": "",
          "type": "uint256[]"
        }
      ],
      "payable": false,
      "stateMutability": "view",
      "type": "function",
      "signature": "0xadaa73ba"
    },
    {
      "constant": true,
      "inputs": [
        {
          "name": "_owner",
          "type": "address"
        }
      ],
      "name": "getSeabiesByOwner",
      "outputs": [
        {
          "name": "",
          "type": "uint256[]"
        }
      ],
      "payable": false,
      "stateMutability": "view",
      "type": "function",
      "signature": "0x5e690182"
    },
    {
      "constant": true,
      "inputs": [
        {
          "name": "_seabyId",
          "type": "uint256"
        }
      ],
      "name": "getSeabyById",
      "outputs": [
        {
          "name": "name",
          "type": "string"
        },
        {
          "name": "generation",
          "type": "uint16"
        },
        {
          "name": "birthTime",
          "type": "uint64"
        },
        {
          "name": "siringPartnerID",
          "type": "uint256"
        },
        {
          "name": "siringCD",
          "type": "uint256"
        },
        {
          "name": "forSale",
          "type": "bool"
        }
      ],
      "payable": false,
      "stateMutability": "view",
      "type": "function",
      "signature": "0x0e03ebda"
    }
  ],
  "bytecode": "0x60806040526004600060146101000a81548160ff021916908360ff160217905550336000806101000a81548173ffffffffffffffffffffffffffffffffffffffff021916908373ffffffffffffffffffffffffffffffffffffffff1602179055506117a38061006f6000396000f3fe6080604052600436106100c5576000357c0100000000000000000000000000000000000000000000000000000000900463ffffffff1680630e03ebda146100ca5780634e260e99146101c15780635e69018214610251578063628c4561146102f75780638da5cb5b14610372578063a2d1aeb6146103c9578063aaf34036146104c0578063adaa73ba1461053b578063af9336e9146105a7578063c39cbef11461066f578063cb87f4c5146106ff578063f2fde38b1461073a578063f76073a81461078b575b600080fd5b3480156100d657600080fd5b50610103600480360360208110156100ed57600080fd5b8101908080359060200190929190505050610806565b60405180806020018761ffff1661ffff1681526020018667ffffffffffffffff1667ffffffffffffffff16815260200185815260200184815260200183151515158152602001828103825288818151815260200191508051906020019080838360005b83811015610181578082015181840152602081019050610166565b50505050905090810190601f1680156101ae5780820380516001836020036101000a031916815260200191505b5097505050505050505060405180910390f35b3480156101cd57600080fd5b506101fa600480360360208110156101e457600080fd5b810190808035906020019092919050505061092b565b6040518080602001828103825283818151815260200191508051906020019060200280838360005b8381101561023d578082015181840152602081019050610222565b505050509050019250505060405180910390f35b34801561025d57600080fd5b506102a06004803603602081101561027457600080fd5b81019080803573ffffffffffffffffffffffffffffffffffffffff169060200190929190505050610a89565b6040518080602001828103825283818151815260200191508051906020019060200280838360005b838110156102e35780820151818401526020810190506102c8565b505050509050019250505060405180910390f35b34801561030357600080fd5b506103306004803603602081101561031a57600080fd5b8101908080359060200190929190505050610bb8565b604051808273ffffffffffffffffffffffffffffffffffffffff1673ffffffffffffffffffffffffffffffffffffffff16815260200191505060405180910390f35b34801561037e57600080fd5b50610387610beb565b604051808273ffffffffffffffffffffffffffffffffffffffff1673ffffffffffffffffffffffffffffffffffffffff16815260200191505060405180910390f35b3480156103d557600080fd5b50610402600480360360208110156103ec57600080fd5b8101908080359060200190929190505050610c10565b60405180806020018761ffff1661ffff1681526020018667ffffffffffffffff1667ffffffffffffffff16815260200185815260200184815260200183151515158152602001828103825288818151815260200191508051906020019080838360005b83811015610480578082015181840152602081019050610465565b50505050905090810190601f1680156104ad5780820380516001836020036101000a031916815260200191505b5097505050505050505060405180910390f35b3480156104cc57600080fd5b506104f9600480360360208110156104e357600080fd5b8101908080359060200190929190505050610d22565b604051808273ffffffffffffffffffffffffffffffffffffffff1673ffffffffffffffffffffffffffffffffffffffff16815260200191505060405180910390f35b34801561054757600080fd5b50610550610d55565b6040518080602001828103825283818151815260200191508051906020019060200280838360005b83811015610593578082015181840152602081019050610578565b505050509050019250505060405180910390f35b3480156105b357600080fd5b5061066d600480360360208110156105ca57600080fd5b81019080803590602001906401000000008111156105e757600080fd5b8201836020820111156105f957600080fd5b8035906020019184600183028401116401000000008311171561061b57600080fd5b91908080601f016020809104026020016040519081016040528093929190818152602001838380828437600081840152601f19601f820116905080830192505050505050509192919290505050610de0565b005b34801561067b57600080fd5b506106fd6004803603604081101561069257600080fd5b8101908080359060200190929190803590602001906401000000008111156106b957600080fd5b8201836020820111156106cb57600080fd5b803590602001918460018302840111640100000000831117156106ed57600080fd5b9091929391929390505050610e99565b005b34801561070b57600080fd5b506107386004803603602081101561072257600080fd5b8101908080359060200190929190505050610f3d565b005b34801561074657600080fd5b506107896004803603602081101561075d57600080fd5b81019080803573ffffffffffffffffffffffffffffffffffffffff169060200190929190505050611015565b005b34801561079757600080fd5b506107c4600480360360208110156107ae57600080fd5b810190808035906020019092919050505061116a565b604051808273ffffffffffffffffffffffffffffffffffffffff1673ffffffffffffffffffffffffffffffffffffffff16815260200191505060405180910390f35b606060008060008060008060018881548110151561082057fe5b90600052602060002090600602019050806000018054600181600116156101000203166002900480601f0160208091040260200160405190810160405280929190818152602001828054600181600116156101000203166002900480156108c85780601f1061089d576101008083540402835291602001916108c8565b820191906000526020600020905b8154815290600101906020018083116108ab57829003601f168201915b505050505096508060010160009054906101000a900461ffff1695508060010160029054906101000a900467ffffffffffffffff16945080600201549350806003015492508060040160009054906101000a900460ff1691505091939550919395565b60606002600083815260200190815260200160002060009054906101000a900473ffffffffffffffffffffffffffffffffffffffff1673ffffffffffffffffffffffffffffffffffffffff163373ffffffffffffffffffffffffffffffffffffffff1614151561099a57600080fd5b6060600060149054906101000a900460ff1660ff166040519080825280602002602001820160405280156109dd5781602001602082028038833980820191505090505b50905060008090505b600060149054906101000a900460ff1660ff168160ff161015610a7f57600184815481101515610a1257fe5b906000526020600020906006020160050160008260ff1660ff16815260200190815260200160002060009054906101000a900461ffff16828260ff16815181101515610a5a57fe5b9060200190602002019061ffff16908161ffff168152505080806001019150506109e6565b5080915050919050565b606080600360008473ffffffffffffffffffffffffffffffffffffffff1673ffffffffffffffffffffffffffffffffffffffff16815260200190815260200160002054604051908082528060200260200182016040528015610afa5781602001602082028038833980820191505090505b509050600080905060008090505b600180549050811015610bad578473ffffffffffffffffffffffffffffffffffffffff166002600083815260200190815260200160002060009054906101000a900473ffffffffffffffffffffffffffffffffffffffff1673ffffffffffffffffffffffffffffffffffffffff161415610ba057808383806001019450815181101515610b9157fe5b90602001906020020181815250505b8080600101915050610b08565b508192505050919050565b60056020528060005260406000206000915054906101000a900473ffffffffffffffffffffffffffffffffffffffff1681565b6000809054906101000a900473ffffffffffffffffffffffffffffffffffffffff1681565b600181815481101515610c1f57fe5b9060005260206000209060060201600091509050806000018054600181600116156101000203166002900480601f016020809104026020016040519081016040528092919081815260200182805460018160011615610100020316600290048015610ccb5780601f10610ca057610100808354040283529160200191610ccb565b820191906000526020600020905b815481529060010190602001808311610cae57829003601f168201915b5050505050908060010160009054906101000a900461ffff16908060010160029054906101000a900467ffffffffffffffff16908060020154908060030154908060040160009054906101000a900460ff16905086565b60026020528060005260406000206000915054906101000a900473ffffffffffffffffffffffffffffffffffffffff1681565b606080600180549050604051908082528060200260200182016040528015610d8c5781602001602082028038833980820191505090505b509050600080905060008090505b600180549050811015610dd757808383806001019450815181101515610dbc57fe5b90602001906020020181815250508080600101915050610d9a565b50819250505090565b60003390506060600060149054906101000a900460ff1660ff16604051908082528060200260200182016040528015610e285781602001602082028038833980820191505090505b50905060008090505b600060149054906101000a900460ff1660ff16811015610e8657610e5361119d565b8282815181101515610e6157fe5b9060200190602002019061ffff16908161ffff16815250508080600101915050610e31565b50610e948360008484611292565b505050565b826002600082815260200190815260200160002060009054906101000a900473ffffffffffffffffffffffffffffffffffffffff1673ffffffffffffffffffffffffffffffffffffffff163373ffffffffffffffffffffffffffffffffffffffff16141515610f0757600080fd5b8282600186815481101515610f1857fe5b90600052602060002090600602016000019190610f3692919061160b565b5050505050565b806002600082815260200190815260200160002060009054906101000a900473ffffffffffffffffffffffffffffffffffffffff1673ffffffffffffffffffffffffffffffffffffffff163373ffffffffffffffffffffffffffffffffffffffff16141515610fab57600080fd5b600182815481101515610fba57fe5b906000526020600020906006020160040160009054906101000a900460ff1615600183815481101515610fe957fe5b906000526020600020906006020160040160006101000a81548160ff0219169083151502179055505050565b6000809054906101000a900473ffffffffffffffffffffffffffffffffffffffff1673ffffffffffffffffffffffffffffffffffffffff163373ffffffffffffffffffffffffffffffffffffffff1614151561107057600080fd5b600073ffffffffffffffffffffffffffffffffffffffff168173ffffffffffffffffffffffffffffffffffffffff16141515156110ac57600080fd5b8073ffffffffffffffffffffffffffffffffffffffff166000809054906101000a900473ffffffffffffffffffffffffffffffffffffffff1673ffffffffffffffffffffffffffffffffffffffff167f8be0079c531659141344cd1fd0a4f28419497f9722a3daafe3b4186f6b6457e060405160405180910390a3806000806101000a81548173ffffffffffffffffffffffffffffffffffffffff021916908373ffffffffffffffffffffffffffffffffffffffff16021790555050565b60046020528060005260406000206000915054906101000a900473ffffffffffffffffffffffffffffffffffffffff1681565b6000806003905060006064423384604051602001808481526020018373ffffffffffffffffffffffffffffffffffffffff1673ffffffffffffffffffffffffffffffffffffffff166c010000000000000000000000000281526014018260ff1660ff167f01000000000000000000000000000000000000000000000000000000000000000281526001019350505050604051602081830303815290604052805190602001206001900481151561124f57fe5b0690506021811115156112675760019250505061128f565b602181118015611278575060438111155b156112885760029250505061128f565b6003925050505b90565b60006201518090506112a261168b565b60c0604051908101604052808781526020018661ffff1681526020014267ffffffffffffffff168152602001600081526020018381526020016001151581525090506000600180839080600181540180825580915050906001820390600052602060002090600602016000909192909190915060008201518160000190805190602001906113319291906116d2565b5060208201518160010160006101000a81548161ffff021916908361ffff16021790555060408201518160010160026101000a81548167ffffffffffffffff021916908367ffffffffffffffff160217905550606082015181600201556080820151816003015560a08201518160040160006101000a81548160ff02191690831515021790555050500390506113c781856113dc565b6113d360008683611472565b50505050505050565b60006001838154811015156113ed57fe5b9060005260206000209060060201905060008090505b82518160ff16101561146c57828160ff1681518110151561142057fe5b906020019060200201518260050160008360ff1660ff16815260200190815260200160002060006101000a81548161ffff021916908361ffff1602179055508080600101915050611403565b50505050565b600360008373ffffffffffffffffffffffffffffffffffffffff1673ffffffffffffffffffffffffffffffffffffffff16815260200190815260200160002060008154809291906001019190505550816002600083815260200190815260200160002060006101000a81548173ffffffffffffffffffffffffffffffffffffffff021916908373ffffffffffffffffffffffffffffffffffffffff160217905550600073ffffffffffffffffffffffffffffffffffffffff168373ffffffffffffffffffffffffffffffffffffffff1614151561160657600360008473ffffffffffffffffffffffffffffffffffffffff1673ffffffffffffffffffffffffffffffffffffffff16815260200190815260200160002060008154809291906001900391905055506005600082815260200190815260200160002060006101000a81549073ffffffffffffffffffffffffffffffffffffffff02191690556004600082815260200190815260200160002060006101000a81549073ffffffffffffffffffffffffffffffffffffffff02191690555b505050565b828054600181600116156101000203166002900490600052602060002090601f016020900481019282601f1061164c57803560ff191683800117855561167a565b8280016001018555821561167a579182015b8281111561167957823582559160200191906001019061165e565b5b5090506116879190611752565b5090565b60c06040519081016040528060608152602001600061ffff168152602001600067ffffffffffffffff16815260200160008152602001600081526020016000151581525090565b828054600181600116156101000203166002900490600052602060002090601f016020900481019282601f1061171357805160ff1916838001178555611741565b82800160010185558215611741579182015b82811115611740578251825591602001919060010190611725565b5b50905061174e9190611752565b5090565b61177491905b80821115611770576000816000905550600101611758565b5090565b9056fea165627a7a723058208021ac5d6a7489479714729f7be16738434cac997d68869ba867b5bedae514f80029",
  "source": "pragma solidity ^0.5.0;\r\nimport \"./AquariumGarden.sol\";\r\ncontract SeabyBase is AquariumGarden {\r\n\r\n    modifier requireOwnerOf(uint _seabyId) {\r\n        require(msg.sender == SeabyToOwner[_seabyId]);\r\n        _;\r\n    }\r\n    function changeName(uint _seabyId, string calldata _newName) external requireOwnerOf(_seabyId) {\r\n        seabies[_seabyId].name = _newName;\r\n    }\r\n    function changeForSaleStatus(uint _seabyId) external requireOwnerOf(_seabyId) {\r\n        seabies[_seabyId].forSale = !seabies[_seabyId].forSale;\r\n    }\r\n    function getAllSeabies() external view returns(uint[] memory) {\r\n        uint[] memory allSeabies = new uint[](seabies.length);\r\n        uint counter = 0;\r\n        for (uint i = 0; i < seabies.length; i++) {\r\n            allSeabies[counter++] = i;\r\n        }\r\n        return allSeabies;\r\n    }\r\n    function getSeabiesByOwner(address _owner) external view returns(uint[] memory) {\r\n        uint[] memory allSeabies = new uint[](ownerSeabyCount[_owner]);\r\n        uint counter = 0;\r\n        for (uint i = 0; i < seabies.length; i++) {\r\n            if (SeabyToOwner[i] == _owner) {\r\n                allSeabies[counter++] = i;\r\n            }\r\n        }\r\n        return allSeabies;\r\n    }\r\n    function getSeabyById(uint _seabyId) external view returns(string memory name, uint16 generation, uint64 birthTime, uint siringPartnerID, uint siringCD, bool forSale) {\r\n        Seaby storage seaby = seabies[_seabyId];\r\n        name = seaby.name;\r\n        generation = seaby.generation;\r\n        birthTime = seaby.birthTime;\r\n        siringPartnerID = seaby.siringPartnerID;\r\n        siringCD = seaby.siringCD;\r\n        forSale = seaby.forSale;\r\n    }\r\n}",
  "sourcePath": "C:\\Users\\chong\\Documents\\works\\KU_2019_Spring\\EECS_582\\Seathereum_final\\client\\src\\truffle\\contracts\\SeabyBase.sol",
  "compiler": {
    "name": "solc",
    "version": "0.5.0+commit.1d4f565a.Emscripten.clang"
  },
  "schemaVersion": "3.0.2",
  "updatedAt": "2019-04-20T01:27:27.348Z",
  "devdoc": {
    "methods": {
      "transferOwnership(address)": {
        "details": "Allows the current owner to transfer control of the contract to a newOwner.\r",
        "params": {
          "newOwner": "The address to transfer ownership to.\r"
        }
      }
    }
  },
  "userdoc": {
    "methods": {}
  }
}